{
  "transactions": [
    {
      "hash": "0xdd5a7409e97b8d282851891c70c5f95396f8f3b128502ac18e71ee52082022e3",
      "transactionType": "CALL",
      "contractName": null,
      "contractAddress": "0x86552b0e39cf2b4861cd0d34254f0fd98d23e852",
      "function": "setAgentMetadata(string,string)",
      "arguments": [
        "agent_data_analysis",
        "{\\\"title\\\":\\\"Data Analysis Agent\\\",\\\"description\\\":\\\"Processes large datasets, creates visualizations, and generates executive summaries in real-time.\\\",\\\"icon\\\":\\\"ChartLine\\\"}"
      ],
      "transaction": {
        "from": "0xde45ec28834c609307bef5651688a6c41d5e6994",
        "to": "0x86552b0e39cf2b4861cd0d34254f0fd98d23e852",
        "gas": "0x3fd2a",
        "value": "0x0",
        "input": "0x7362aa120000000000000000000000000000000000000000000000000000000000000040000000000000000000000000000000000000000000000000000000000000008000000000000000000000000000000000000000000000000000000000000000136167656e745f646174615f616e616c797369730000000000000000000000000000000000000000000000000000000000000000000000000000000000000000a47b227469746c65223a224461746120416e616c79736973204167656e74222c226465736372697074696f6e223a2250726f636573736573206c617267652064617461736574732c20637265617465732076697375616c697a6174696f6e732c20616e642067656e657261746573206578656375746976652073756d6d617269657320696e207265616c2d74696d652e222c2269636f6e223a2243686172744c696e65227d00000000000000000000000000000000000000000000000000000000",
        "nonce": "0x12",
        "chainId": "0x4cef52"
      },
      "additionalContracts": [],
      "isFixedGasLimit": false
    },
    {
      "hash": "0x87f2c34575a75769cd4c5f8baf8d44dbb79011baab2249be3f3f90c4c23c983a",
      "transactionType": "CALL",
      "contractName": null,
      "contractAddress": "0x86552b0e39cf2b4861cd0d34254f0fd98d23e852",
      "function": "setAgentMetadata(string,string)",
      "arguments": [
        "agent_content_writing",
        "{\\\"title\\\":\\\"Content Writing\\\",\\\"description\\\":\\\"SEO-optimized articles, whitepapers, and technical documentation with zero hallucination.\\\",\\\"icon\\\":\\\"FileText\\\"}"
      ],
      "transaction": {
        "from": "0xde45ec28834c609307bef5651688a6c41d5e6994",
        "to": "0x86552b0e39cf2b4861cd0d34254f0fd98d23e852",
        "gas": "0x3b8ec",
        "value": "0x0",
        "input": "0x7362aa120000000000000000000000000000000000000000000000000000000000000040000000000000000000000000000000000000000000000000000000000000008000000000000000000000000000000000000000000000000000000000000000156167656e745f636f6e74656e745f77726974696e67000000000000000000000000000000000000000000000000000000000000000000000000000000000000977b227469746c65223a22436f6e74656e742057726974696e67222c226465736372697074696f6e223a2253454f2d6f7074696d697a65642061727469636c65732c2077686974657061706572732c20616e6420746563686e6963616c20646f63756d656e746174696f6e2077697468207a65726f2068616c6c7563696e6174696f6e2e222c2269636f6e223a2246696c6554657874227d000000000000000000",
        "nonce": "0x13",
        "chainId": "0x4cef52"
      },
      "additionalContracts": [],
      "isFixedGasLimit": false
    },
    {
      "hash": "0x2c107c6e4f81a3361c65149fd1c5a42a94edf77ec28b5fed20b1c214bf8c0e8f",
      "transactionType": "CALL",
      "contractName": null,
      "contractAddress": "0x86552b0e39cf2b4861cd0d34254f0fd98d23e852",
      "function": "setAgentMetadata(string,string)",
      "arguments": [
        "agent_python_coding",
        "{\\\"title\\\":\\\"Python Coding\\\",\\\"description\\\":\\\"Automates script generation, debugging, and API integrations with enterprise-grade standards.\\\",\\\"icon\\\":\\\"Code\\\"}"
      ],
      "transaction": {
        "from": "0xde45ec28834c609307bef5651688a6c41d5e6994",
        "to": "0x86552b0e39cf2b4861cd0d34254f0fd98d23e852",
        "gas": "0x3b8a6",
        "value": "0x0",
        "input": "0x7362aa120000000000000000000000000000000000000000000000000000000000000040000000000000000000000000000000000000000000000000000000000000008000000000000000000000000000000000000000000000000000000000000000136167656e745f707974686f6e5f636f64696e670000000000000000000000000000000000000000000000000000000000000000000000000000000000000000957b227469746c65223a22507974686f6e20436f64696e67222c226465736372697074696f6e223a224175746f6d61746573207363726970742067656e65726174696f6e2c20646562756767696e672c20616e642041504920696e746567726174696f6e73207769746820656e74657270726973652d6772616465207374616e64617264732e222c2269636f6e223a22436f6465227d0000000000000000000000",
        "nonce": "0x14",
        "chainId": "0x4cef52"
      },
      "additionalContracts": [],
      "isFixedGasLimit": false
    },
    {
      "hash": "0xef910f945b88b5e131231c1af435ad75d5492be4cd3e73db863f42d06e8d64b1",
      "transactionType": "CALL",
      "contractName": null,
      "contractAddress": "0x86552b0e39cf2b4861cd0d34254f0fd98d23e852",
      "function": "setAgentMetadata(string,string)",
      "arguments": [
        "agent_lang_translation",
        "{\\\"title\\\":\\\"Language Translation\\\",\\\"description\\\":\\\"High-fidelity translation across 40+ languages with deep cultural context awareness.\\\",\\\"icon\\\":\\\"Translate\\\"}"
      ],
      "transaction": {
        "from": "0xde45ec28834c609307bef5651688a6c41d5e6994",
        "to": "0x86552b0e39cf2b4861cd0d34254f0fd98d23e852",
        "gas": "0x3b910",
        "value": "0x0",
        "input": "0x7362aa120000000000000000000000000000000000000000000000000000000000000040000000000000000000000000000000000000000000000000000000000000008000000000000000000000000000000000000000000000000000000000000000166167656e745f6c616e675f7472616e736c6174696f6e0000000000000000000000000000000000000000000000000000000000000000000000000000000000987b227469746c65223a224c616e6775616765205472616e736c6174696f6e222c226465736372697074696f6e223a22486967682d666964656c697479207472616e736c6174696f6e206163726f73732034302b206c616e677561676573207769746820646565702063756c747572616c20636f6e746578742061776172656e6573732e222c2269636f6e223a225472616e736c617465227d0000000000000000",
        "nonce": "0x15",
        "chainId": "0x4cef52"
      },
      "additionalContracts": [],
      "isFixedGasLimit": false
    },
    {
      "hash": "0x1ca95c28c8546161a026e25ce5c11ea66cf43372a4d737fc8c7b27877ee8cd3e",
      "transactionType": "CALL",
      "contractName": null,
      "contractAddress": "0x86552b0e39cf2b4861cd0d34254f0fd98d23e852",
      "function": "setAgentMetadata(string,string)",
      "arguments": [
        "agent_image_gen",
        "{\\\"title\\\":\\\"Image Generation\\\",\\\"description\\\":\\\"Photorealistic corporate assets and marketing visuals generated on demand.\\\",\\\"icon\\\":\\\"Image\\\"}"
      ],
      "transaction": {
        "from": "0xde45ec28834c609307bef5651688a6c41d5e6994",
        "to": "0x86552b0e39cf2b4861cd0d34254f0fd98d23e852",
        "gas": "0x3827e",
        "value": "0x0",
        "input": "0x7362aa1200000000000000000000000000000000000000000000000000000000000000400000000000000000000000000000000000000000000000000000000000000080000000000000000000000000000000000000000000000000000000000000000f6167656e745f696d6167655f67656e000000000000000000000000000000000000000000000000000000000000000000000000000000000000000000000000867b227469746c65223a22496d6167652047656e65726174696f6e222c226465736372697074696f6e223a2250686f746f7265616c697374696320636f72706f726174652061737365747320616e64206d61726b6574696e672076697375616c732067656e657261746564206f6e2064656d616e642e222c2269636f6e223a22496d616765227d0000000000000000000000000000000000000000000000000000",
        "nonce": "0x16",
        "chainId": "0x4cef52"
      },
      "additionalContracts": [],
      "isFixedGasLimit": false
    },
    {
      "hash": "0x16b33db6dbd135ee673bfa35c2c7f42b13fb01dbe41ca398ecde098a3e9467f7",
      "transactionType": "CALL",
      "contractName": null,
      "contractAddress": "0x86552b0e39cf2b4861cd0d34254f0fd98d23e852",
      "function": "setAgentMetadata(string,string)",
      "arguments": [
        "agent_ai_moderation",
        "{\\\"title\\\":\\\"AI Moderation\\\",\\\"description\\\":\\\"Scalable community protection and content filtering with real-time enforcement.\\\",\\\"icon\\\":\\\"ShieldCheck\\\"}"
      ],
      "transaction": {
        "from": "0xde45ec28834c609307bef5651688a6c41d5e6994",
        "to": "0x86552b0e39cf2b4861cd0d34254f0fd98d23e852",
        "gas": "0x38345",
        "value": "0x0",
        "input": "0x7362aa120000000000000000000000000000000000000000000000000000000000000040000000000000000000000000000000000000000000000000000000000000008000000000000000000000000000000000000000000000000000000000000000136167656e745f61695f6d6f6465726174696f6e00000000000000000000000000000000000000000000000000000000000000000000000000000000000000008e7b227469746c65223a224149204d6f6465726174696f6e222c226465736372697074696f6e223a225363616c61626c6520636f6d6d756e6974792070726f74656374696f6e20616e6420636f6e74656e742066696c746572696e672077697468207265616c2d74696d6520656e666f7263656d656e742e222c2269636f6e223a22536869656c64436865636b227d000000000000000000000000000000000000",
        "nonce": "0x17",
        "chainId": "0x4cef52"
      },
      "additionalContracts": [],
      "isFixedGasLimit": false
    }
  ],
  "receipts": [
    {
      "type": "0x0",
      "status": "0x1",
      "cumulativeGasUsed": "0x58e1bf",
      "logs": [],
      "logsBloom": "0x00000000000000000000000000000000000000000000000000000000000000000000000000000000000000000000000000000000000000000000000000000000000000000000000000000000000000000000000000000000000000000000000000000000000000000000000000000000000000000000000000000000000000000000000000000000000000000000000000000000000000000000000000000000000000000000000000000000000000000000000000000000000000000000000000000000000000000000000000000000000000000000000000000000000000000000000000000000000000000000000000000000000000000000000000000000",
      "transactionHash": "0xdd5a7409e97b8d282851891c70c5f95396f8f3b128502ac18e71ee52082022e3",
      "transactionIndex": "0x17",
      "blockHash": "0x53991f351af085e539b68e2cbbf95dfd991697ac5e378b222ca9826828ef6b48",
      "blockNumber": "0x2d20ddc",
      "gasUsed": "0x2e34f",
      "effectiveGasPrice": "0x4f96fef92",
      "from": "0xde45ec28834c609307bef5651688a6c41d5e6994",
      "to": "0x86552b0e39cf2b4861cd0d34254f0fd98d23e852",
      "contractAddress": null
    },
    {
      "type": "0x0",
      "status": "0x1",
      "cumulativeGasUsed": "0x5b6d52",
      "logs": [],
      "logsBloom": "0x00000000000000000000000000000000000000000000000000000000000000000000000000000000000000000000000000000000000000000000000000000000000000000000000000000000000000000000000000000000000000000000000000000000000000000000000000000000000000000000000000000000000000000000000000000000000000000000000000000000000000000000000000000000000000000000000000000000000000000000000000000000000000000000000000000000000000000000000000000000000000000000000000000000000000000000000000000000000000000000000000000000000000000000000000000000",
      "transactionHash": "0x16b33db6dbd135ee673bfa35c2c7f42b13fb01dbe41ca398ecde098a3e9467f7",
      "transactionIndex": "0x18",
      "blockHash": "0x53991f351af085e539b68e2cbbf95dfd991697ac5e378b222ca9826828ef6b48",
      "blockNumber": "0x2d20ddc",
      "gasUsed": "0x28b93",
      "effectiveGasPrice": "0x4f96fef92",
      "from": "0xde45ec28834c609307bef5651688a6c41d5e6994",
      "to": "0x86552b0e39cf2b4861cd0d34254f0fd98d23e852",
      "contractAddress": null
    },
    {
      "type": "0x0",
      "status": "0x1",
      "cumulativeGasUsed": "0x5df8b5",
      "logs": [],
      "logsBloom": "0x00000000000000000000000000000000000000000000000000000000000000000000000000000000000000000000000000000000000000000000000000000000000000000000000000000000000000000000000000000000000000000000000000000000000000000000000000000000000000000000000000000000000000000000000000000000000000000000000000000000000000000000000000000000000000000000000000000000000000000000000000000000000000000000000000000000000000000000000000000000000000000000000000000000000000000000000000000000000000000000000000000000000000000000000000000000",
      "transactionHash": "0xef910f945b88b5e131231c1af435ad75d5492be4cd3e73db863f42d06e8d64b1",
      "transactionIndex": "0x19",
      "blockHash": "0x53991f351af085e539b68e2cbbf95dfd991697ac5e378b222ca9826828ef6b48",
      "blockNumber": "0x2d20ddc",
      "gasUsed": "0x28b63",
      "effectiveGasPrice": "0x4f96fef92",
      "from": "0xde45ec28834c609307bef5651688a6c41d5e6994",
      "to": "0x86552b0e39cf2b4861cd0d34254f0fd98d23e852",
      "contractAddress": null
    },
    {
      "type": "0x0",
      "status": "0x1",
      "cumulativeGasUsed": "0x608460",
      "logs": [],
      "logsBloom": "0x00000000000000000000000000000000000000000000000000000000000000000000000000000000000000000000000000000000000000000000000000000000000000000000000000000000000000000000000000000000000000000000000000000000000000000000000000000000000000000000000000000000000000000000000000000000000000000000000000000000000000000000000000000000000000000000000000000000000000000000000000000000000000000000000000000000000000000000000000000000000000000000000000000000000000000000000000000000000000000000000000000000000000000000000000000000",
      "transactionHash": "0x2c107c6e4f81a3361c65149fd1c5a42a94edf77ec28b5fed20b1c214bf8c0e8f",
      "transactionIndex": "0x1a",
      "blockHash": "0x53991f351af085e539b68e2cbbf95dfd991697ac5e378b222ca9826828ef6b48",
      "blockNumber": "0x2d20ddc",
      "gasUsed": "0x28bab",
      "effectiveGasPrice": "0x4f96fef92",
      "from": "0xde45ec28834c609307bef5651688a6c41d5e6994",
      "to": "0x86552b0e39cf2b4861cd0d34254f0fd98d23e852",
      "contractAddress": null
    },
    {
      "type": "0x0",
      "status": "0x1",
      "cumulativeGasUsed": "0x630edf",
      "logs": [],
      "logsBloom": "0x00000000000000000000000000000000000000000000000000000000000000000000000000000000000000000000000000000000000000000000000000000000000000000000000000000000000000000000000000000000000000000000000000000000000000000000000000000000000000000000000000000000000000000000000000000000000000000000000000000000000000000000000000000000000000000000000000000000000000000000000000000000000000000000000000000000000000000000000000000000000000000000000000000000000000000000000000000000000000000000000000000000000000000000000000000000",
      "transactionHash": "0x1ca95c28c8546161a026e25ce5c11ea66cf43372a4d737fc8c7b27877ee8cd3e",
      "transactionIndex": "0x1b",
      "blockHash": "0x53991f351af085e539b68e2cbbf95dfd991697ac5e378b222ca9826828ef6b48",
      "blockNumber": "0x2d20ddc",
      "gasUsed": "0x28a7f",
      "effectiveGasPrice": "0x4f96fef92",
      "from": "0xde45ec28834c609307bef5651688a6c41d5e6994",
      "to": "0x86552b0e39cf2b4861cd0d34254f0fd98d23e852",
      "contractAddress": null
    },
    {
      "type": "0x0",
      "status": "0x1",
      "cumulativeGasUsed": "0x6599ee",
      "logs": [],
      "logsBloom": "0x00000000000000000000000000000000000000000000000000000000000000000000000000000000000000000000000000000000000000000000000000000000000000000000000000000000000000000000000000000000000000000000000000000000000000000000000000000000000000000000000000000000000000000000000000000000000000000000000000000000000000000000000000000000000000000000000000000000000000000000000000000000000000000000000000000000000000000000000000000000000000000000000000000000000000000000000000000000000000000000000000000000000000000000000000000000",
      "transactionHash": "0x87f2c34575a75769cd4c5f8baf8d44dbb79011baab2249be3f3f90c4c23c983a",
      "transactionIndex": "0x1c",
      "blockHash": "0x53991f351af085e539b68e2cbbf95dfd991697ac5e378b222ca9826828ef6b48",
      "blockNumber": "0x2d20ddc",
      "gasUsed": "0x28b0f",
      "effectiveGasPrice": "0x4f96fef92",
      "from": "0xde45ec28834c609307bef5651688a6c41d5e6994",
      "to": "0x86552b0e39cf2b4861cd0d34254f0fd98d23e852",
      "contractAddress": null
    }
  ],
  "libraries": [],
  "pending": [],
  "returns": {},
  "timestamp": 1781617307801,
  "chain": 5042002,
  "commit": null
}