{
  "transactions": [
    {
      "hash": "0x6ccab25b53ee51b333e6376fbb54e4a64b6e6c7cde0238a296287e6a64e6d97f",
      "transactionType": "CALL",
      "contractName": null,
      "contractAddress": "0xa50259e09aa6e9462398c819ea839f4d539fbce8",
      "function": "listAgent(string,uint256)",
      "arguments": [
        "agent_data_analysis",
        "3000000"
      ],
      "transaction": {
        "from": "0xde45ec28834c609307bef5651688a6c41d5e6994",
        "to": "0xa50259e09aa6e9462398c819ea839f4d539fbce8",
        "gas": "0x29209",
        "value": "0x0",
        "input": "0xbe1eaad9000000000000000000000000000000000000000000000000000000000000004000000000000000000000000000000000000000000000000000000000002dc6c000000000000000000000000000000000000000000000000000000000000000136167656e745f646174615f616e616c7973697300000000000000000000000000",
        "nonce": "0x2",
        "chainId": "0x4cef52"
      },
      "additionalContracts": [],
      "isFixedGasLimit": false
    },
    {
      "hash": "0xb012e59c0375641691b2f0e6c852a67605e0843abf2a29bacd294dc47d17ddb2",
      "transactionType": "CALL",
      "contractName": null,
      "contractAddress": "0xa50259e09aa6e9462398c819ea839f4d539fbce8",
      "function": "listAgent(string,uint256)",
      "arguments": [
        "agent_content_writing",
        "4500000"
      ],
      "transaction": {
        "from": "0xde45ec28834c609307bef5651688a6c41d5e6994",
        "to": "0xa50259e09aa6e9462398c819ea839f4d539fbce8",
        "gas": "0x2922d",
        "value": "0x0",
        "input": "0xbe1eaad90000000000000000000000000000000000000000000000000000000000000040000000000000000000000000000000000000000000000000000000000044aa2000000000000000000000000000000000000000000000000000000000000000156167656e745f636f6e74656e745f77726974696e670000000000000000000000",
        "nonce": "0x3",
        "chainId": "0x4cef52"
      },
      "additionalContracts": [],
      "isFixedGasLimit": false
    },
    {
      "hash": "0x12b2b7537a08935fdb3f170e6a0e985b026ca08ce0e0081c39422e5766a92f94",
      "transactionType": "CALL",
      "contractName": null,
      "contractAddress": "0xa50259e09aa6e9462398c819ea839f4d539fbce8",
      "function": "listAgent(string,uint256)",
      "arguments": [
        "agent_python_coding",
        "6000000"
      ],
      "transaction": {
        "from": "0xde45ec28834c609307bef5651688a6c41d5e6994",
        "to": "0xa50259e09aa6e9462398c819ea839f4d539fbce8",
        "gas": "0x29209",
        "value": "0x0",
        "input": "0xbe1eaad9000000000000000000000000000000000000000000000000000000000000004000000000000000000000000000000000000000000000000000000000005b8d8000000000000000000000000000000000000000000000000000000000000000136167656e745f707974686f6e5f636f64696e6700000000000000000000000000",
        "nonce": "0x4",
        "chainId": "0x4cef52"
      },
      "additionalContracts": [],
      "isFixedGasLimit": false
    },
    {
      "hash": "0x2125ce9f1044f231500eab8d244480c65ca647aa51aee996da43752e60ecd40c",
      "transactionType": "CALL",
      "contractName": null,
      "contractAddress": "0xa50259e09aa6e9462398c819ea839f4d539fbce8",
      "function": "listAgent(string,uint256)",
      "arguments": [
        "agent_lang_translation",
        "2000000"
      ],
      "transaction": {
        "from": "0xde45ec28834c609307bef5651688a6c41d5e6994",
        "to": "0xa50259e09aa6e9462398c819ea839f4d539fbce8",
        "gas": "0x26dac",
        "value": "0x0",
        "input": "0xbe1eaad9000000000000000000000000000000000000000000000000000000000000004000000000000000000000000000000000000000000000000000000000001e848000000000000000000000000000000000000000000000000000000000000000166167656e745f6c616e675f7472616e736c6174696f6e00000000000000000000",
        "nonce": "0x5",
        "chainId": "0x4cef52"
      },
      "additionalContracts": [],
      "isFixedGasLimit": false
    },
    {
      "hash": "0x6e5f1a7448aa40c583ffb07d7c7df0b3da6945349207cba693d0fe8b070bf008",
      "transactionType": "CALL",
      "contractName": null,
      "contractAddress": "0xa50259e09aa6e9462398c819ea839f4d539fbce8",
      "function": "listAgent(string,uint256)",
      "arguments": [
        "agent_image_gen",
        "5000000"
      ],
      "transaction": {
        "from": "0xde45ec28834c609307bef5651688a6c41d5e6994",
        "to": "0xa50259e09aa6e9462398c819ea839f4d539fbce8",
        "gas": "0x291c3",
        "value": "0x0",
        "input": "0xbe1eaad9000000000000000000000000000000000000000000000000000000000000004000000000000000000000000000000000000000000000000000000000004c4b40000000000000000000000000000000000000000000000000000000000000000f6167656e745f696d6167655f67656e0000000000000000000000000000000000",
        "nonce": "0x6",
        "chainId": "0x4cef52"
      },
      "additionalContracts": [],
      "isFixedGasLimit": false
    },
    {
      "hash": "0xd59695c7c15f0467a58dc647858ad6cf4cc04889c48766e2a981031701c8e9f1",
      "transactionType": "CALL",
      "contractName": null,
      "contractAddress": "0xa50259e09aa6e9462398c819ea839f4d539fbce8",
      "function": "listAgent(string,uint256)",
      "arguments": [
        "agent_ai_moderation",
        "2500000"
      ],
      "transaction": {
        "from": "0xde45ec28834c609307bef5651688a6c41d5e6994",
        "to": "0xa50259e09aa6e9462398c819ea839f4d539fbce8",
        "gas": "0x29209",
        "value": "0x0",
        "input": "0xbe1eaad9000000000000000000000000000000000000000000000000000000000000004000000000000000000000000000000000000000000000000000000000002625a000000000000000000000000000000000000000000000000000000000000000136167656e745f61695f6d6f6465726174696f6e00000000000000000000000000",
        "nonce": "0x7",
        "chainId": "0x4cef52"
      },
      "additionalContracts": [],
      "isFixedGasLimit": false
    }
  ],
  "receipts": [
    {
      "type": "0x0",
      "status": "0x1",
      "cumulativeGasUsed": "0x50f694",
      "logs": [
        {
          "address": "0xa50259e09aa6e9462398c819ea839f4d539fbce8",
          "topics": [
            "0x70c096a8ffc9f738a8a09dbfac955378c41a1b4206b3e07e28343f3d0701a9b6",
            "0x7e70c710e7b22a99165bc45b04ef4381eafa92a77838ed5652bf2769c8c8b17a",
            "0x000000000000000000000000de45ec28834c609307bef5651688a6c41d5e6994"
          ],
          "data": "0x00000000000000000000000000000000000000000000000000000000002dc6c0",
          "blockHash": "0x827504b3abaa4b1c05dbc48bccaccedb1d9c1e8b3d995fdc17a2fb5f001ae78d",
          "blockNumber": "0x2cf6940",
          "blockTimestamp": "0x6a2f9964",
          "transactionHash": "0xb012e59c0375641691b2f0e6c852a67605e0843abf2a29bacd294dc47d17ddb2",
          "transactionIndex": "0x23",
          "logIndex": "0x76",
          "removed": false
        }
      ],
      "logsBloom": "0x00000000000000000000000000000000000000000000000000000000000000000000000000000000000000000000000000000000000000000000000800100000000000000000000000000000100000000000000400000000000000000000000000040000000000000002000000000000000000000000000008000000000000000000000000000000000000000000000000000000080000000000000000000000000000000000010000000000000000000000000000000000000000080000000000000000000008000000000000000000000000000000000000000000000000000000000004000000000000000000000000000000000000000000000000000000",
      "transactionHash": "0xb012e59c0375641691b2f0e6c852a67605e0843abf2a29bacd294dc47d17ddb2",
      "transactionIndex": "0x23",
      "blockHash": "0x827504b3abaa4b1c05dbc48bccaccedb1d9c1e8b3d995fdc17a2fb5f001ae78d",
      "blockNumber": "0x2cf6940",
      "gasUsed": "0x1c1f1",
      "effectiveGasPrice": "0x4b4038a00",
      "from": "0xde45ec28834c609307bef5651688a6c41d5e6994",
      "to": "0xa50259e09aa6e9462398c819ea839f4d539fbce8",
      "contractAddress": null
    },
    {
      "type": "0x0",
      "status": "0x1",
      "cumulativeGasUsed": "0x52b89d",
      "logs": [
        {
          "address": "0xa50259e09aa6e9462398c819ea839f4d539fbce8",
          "topics": [
            "0x70c096a8ffc9f738a8a09dbfac955378c41a1b4206b3e07e28343f3d0701a9b6",
            "0xf57c2e3e4e7de08ba1de2108dfa388b9241480ca9e9fe21cc5528a77329c9781",
            "0x000000000000000000000000de45ec28834c609307bef5651688a6c41d5e6994"
          ],
          "data": "0x000000000000000000000000000000000000000000000000000000000044aa20",
          "blockHash": "0x827504b3abaa4b1c05dbc48bccaccedb1d9c1e8b3d995fdc17a2fb5f001ae78d",
          "blockNumber": "0x2cf6940",
          "blockTimestamp": "0x6a2f9964",
          "transactionHash": "0x12b2b7537a08935fdb3f170e6a0e985b026ca08ce0e0081c39422e5766a92f94",
          "transactionIndex": "0x24",
          "logIndex": "0x77",
          "removed": false
        }
      ],
      "logsBloom": "0x00000000000000000000000000000000000000000000000000000000000000000000000200000000000000000000000000000100000000000000000000100000000000000000000000000000000000000000000400000000000000000000000000040000000000000002000000000004000000000000000000000000000000000000000000000000000000000000000000000000080000000000000000000000000000000000010000000000000000000000000000000000000000080000000000000000000008000000000000000000000000000000000000000000000000000000000004000000000000000000000000000000000000000000000000000000",
      "transactionHash": "0x12b2b7537a08935fdb3f170e6a0e985b026ca08ce0e0081c39422e5766a92f94",
      "transactionIndex": "0x24",
      "blockHash": "0x827504b3abaa4b1c05dbc48bccaccedb1d9c1e8b3d995fdc17a2fb5f001ae78d",
      "blockNumber": "0x2cf6940",
      "gasUsed": "0x1c209",
      "effectiveGasPrice": "0x4b4038a00",
      "from": "0xde45ec28834c609307bef5651688a6c41d5e6994",
      "to": "0xa50259e09aa6e9462398c819ea839f4d539fbce8",
      "contractAddress": null
    },
    {
      "type": "0x0",
      "status": "0x1",
      "cumulativeGasUsed": "0x547a8e",
      "logs": [
        {
          "address": "0xa50259e09aa6e9462398c819ea839f4d539fbce8",
          "topics": [
            "0x70c096a8ffc9f738a8a09dbfac955378c41a1b4206b3e07e28343f3d0701a9b6",
            "0x82a924669f0448570e2cacb8a72fd5ba1045d8cc696c594297b2066d393dc147",
            "0x000000000000000000000000de45ec28834c609307bef5651688a6c41d5e6994"
          ],
          "data": "0x00000000000000000000000000000000000000000000000000000000005b8d80",
          "blockHash": "0x827504b3abaa4b1c05dbc48bccaccedb1d9c1e8b3d995fdc17a2fb5f001ae78d",
          "blockNumber": "0x2cf6940",
          "blockTimestamp": "0x6a2f9964",
          "transactionHash": "0x2125ce9f1044f231500eab8d244480c65ca647aa51aee996da43752e60ecd40c",
          "transactionIndex": "0x25",
          "logIndex": "0x78",
          "removed": false
        }
      ],
      "logsBloom": "0x00000000000000000000000000000000000000000000000000000000000000000000000000000000000000000000000000000000000000000000000000100000000000000000000000001000000000000000000400000000000000000000000000040000000000000002000000000000000000000000000000040000000000000000000000000000000000000000000000000000080000000000000000000000000000000000010000080000000000000000000000000000000000080000000000000000000008000000000000000000000000000000000000000000000000000000000004000000000000000000000000000000000000000000000000000000",
      "transactionHash": "0x2125ce9f1044f231500eab8d244480c65ca647aa51aee996da43752e60ecd40c",
      "transactionIndex": "0x25",
      "blockHash": "0x827504b3abaa4b1c05dbc48bccaccedb1d9c1e8b3d995fdc17a2fb5f001ae78d",
      "blockNumber": "0x2cf6940",
      "gasUsed": "0x1c1f1",
      "effectiveGasPrice": "0x4b4038a00",
      "from": "0xde45ec28834c609307bef5651688a6c41d5e6994",
      "to": "0xa50259e09aa6e9462398c819ea839f4d539fbce8",
      "contractAddress": null
    },
    {
      "type": "0x0",
      "status": "0x1",
      "cumulativeGasUsed": "0x563ca3",
      "logs": [
        {
          "address": "0xa50259e09aa6e9462398c819ea839f4d539fbce8",
          "topics": [
            "0x70c096a8ffc9f738a8a09dbfac955378c41a1b4206b3e07e28343f3d0701a9b6",
            "0xb2beeccb475e1e2327b399c6bc65bdd23b5d70696f4bb1150a8639662a932db4",
            "0x000000000000000000000000de45ec28834c609307bef5651688a6c41d5e6994"
          ],
          "data": "0x00000000000000000000000000000000000000000000000000000000001e8480",
          "blockHash": "0x827504b3abaa4b1c05dbc48bccaccedb1d9c1e8b3d995fdc17a2fb5f001ae78d",
          "blockNumber": "0x2cf6940",
          "blockTimestamp": "0x6a2f9964",
          "transactionHash": "0x6ccab25b53ee51b333e6376fbb54e4a64b6e6c7cde0238a296287e6a64e6d97f",
          "transactionIndex": "0x26",
          "logIndex": "0x79",
          "removed": false
        }
      ],
      "logsBloom": "0x00000000000000000000000000000000000000000000000000000000000000000000000000000000000000000000000000000000000000000000000000100000000000000000000000000000000000000000000400000000040000000000000000040000000000000002000000000000000000000000000000000000000000020000000000000000000000000000000000000000080000000000000000000000000000000000010000000000000000000000000000000000000000080000000000000000000008000000000000000000000000000000000000000000000000000000000004000000000000000000000000000000000000000000000000000800",
      "transactionHash": "0x6ccab25b53ee51b333e6376fbb54e4a64b6e6c7cde0238a296287e6a64e6d97f",
      "transactionIndex": "0x26",
      "blockHash": "0x827504b3abaa4b1c05dbc48bccaccedb1d9c1e8b3d995fdc17a2fb5f001ae78d",
      "blockNumber": "0x2cf6940",
      "gasUsed": "0x1c215",
      "effectiveGasPrice": "0x4b4038a00",
      "from": "0xde45ec28834c609307bef5651688a6c41d5e6994",
      "to": "0xa50259e09aa6e9462398c819ea839f4d539fbce8",
      "contractAddress": null
    },
    {
      "type": "0x0",
      "status": "0x1",
      "cumulativeGasUsed": "0x57fe64",
      "logs": [
        {
          "address": "0xa50259e09aa6e9462398c819ea839f4d539fbce8",
          "topics": [
            "0x70c096a8ffc9f738a8a09dbfac955378c41a1b4206b3e07e28343f3d0701a9b6",
            "0x682ae93c4a45a544090112a627eebd7ca54679f7a20c000dd86797d4607e6538",
            "0x000000000000000000000000de45ec28834c609307bef5651688a6c41d5e6994"
          ],
          "data": "0x00000000000000000000000000000000000000000000000000000000004c4b40",
          "blockHash": "0x827504b3abaa4b1c05dbc48bccaccedb1d9c1e8b3d995fdc17a2fb5f001ae78d",
          "blockNumber": "0x2cf6940",
          "blockTimestamp": "0x6a2f9964",
          "transactionHash": "0xd59695c7c15f0467a58dc647858ad6cf4cc04889c48766e2a981031701c8e9f1",
          "transactionIndex": "0x27",
          "logIndex": "0x7a",
          "removed": false
        }
      ],
      "logsBloom": "0x00000000000000000000000000000000000000000000000000000000000200000000000000000000000000000000000000000000000000000000000000100000000000000000000000000000000000000000000400000000000000000000000000040000000000000002000000000000000000000000000000000000000000000000000000000000000010000000000000000000080000000000000000000000000000000000010000000000000000000000000000000000000000080000000000000000000008000000000000000000000000000000000000000000000000000000000004000000000000000000000000000000000040000000000000000000",
      "transactionHash": "0xd59695c7c15f0467a58dc647858ad6cf4cc04889c48766e2a981031701c8e9f1",
      "transactionIndex": "0x27",
      "blockHash": "0x827504b3abaa4b1c05dbc48bccaccedb1d9c1e8b3d995fdc17a2fb5f001ae78d",
      "blockNumber": "0x2cf6940",
      "gasUsed": "0x1c1c1",
      "effectiveGasPrice": "0x4b4038a00",
      "from": "0xde45ec28834c609307bef5651688a6c41d5e6994",
      "to": "0xa50259e09aa6e9462398c819ea839f4d539fbce8",
      "contractAddress": null
    },
    {
      "type": "0x0",
      "status": "0x1",
      "cumulativeGasUsed": "0x59c055",
      "logs": [
        {
          "address": "0xa50259e09aa6e9462398c819ea839f4d539fbce8",
          "topics": [
            "0x70c096a8ffc9f738a8a09dbfac955378c41a1b4206b3e07e28343f3d0701a9b6",
            "0x8185a103baffd721e3b33473e16829acc8f8e4ef8eb9dfb852412d5e29bbdbee",
            "0x000000000000000000000000de45ec28834c609307bef5651688a6c41d5e6994"
          ],
          "data": "0x00000000000000000000000000000000000000000000000000000000002625a0",
          "blockHash": "0x827504b3abaa4b1c05dbc48bccaccedb1d9c1e8b3d995fdc17a2fb5f001ae78d",
          "blockNumber": "0x2cf6940",
          "blockTimestamp": "0x6a2f9964",
          "transactionHash": "0x6e5f1a7448aa40c583ffb07d7c7df0b3da6945349207cba693d0fe8b070bf008",
          "transactionIndex": "0x28",
          "logIndex": "0x7b",
          "removed": false
        }
      ],
      "logsBloom": "0x00000000000000000000000000000000000000000000000000000000000000000000000000000000000000000000000000000000000000000000000000100000000000000000000000000000000000000000000400000000000000000000000000040000000000000002000000000000000000000000000000000000000000000000000000000000000000000000000000000000080000000000000000000000000000000000010000000000000000000000000000000000000000080000000000000000000008000000000000000000000000000000000000000000000000000100000004000000000000000000000000000000000001000010000000000000",
      "transactionHash": "0x6e5f1a7448aa40c583ffb07d7c7df0b3da6945349207cba693d0fe8b070bf008",
      "transactionIndex": "0x28",
      "blockHash": "0x827504b3abaa4b1c05dbc48bccaccedb1d9c1e8b3d995fdc17a2fb5f001ae78d",
      "blockNumber": "0x2cf6940",
      "gasUsed": "0x1c1f1",
      "effectiveGasPrice": "0x4b4038a00",
      "from": "0xde45ec28834c609307bef5651688a6c41d5e6994",
      "to": "0xa50259e09aa6e9462398c819ea839f4d539fbce8",
      "contractAddress": null
    }
  ],
  "libraries": [],
  "pending": [],
  "returns": {},
  "timestamp": 1781504348289,
  "chain": 5042002,
  "commit": null
}