{
  "transactions": [
    {
      "hash": "0x7500f33968f78631ca94ebc9cb1373035daa4547b72bc6cfde21d1959c40b776",
      "transactionType": "CALL",
      "contractName": null,
      "contractAddress": "0x86552b0e39cf2b4861cd0d34254f0fd98d23e852",
      "function": "listAgent(string,uint256)",
      "arguments": [
        "agent_data_analysis",
        "3000000"
      ],
      "transaction": {
        "from": "0xde45ec28834c609307bef5651688a6c41d5e6994",
        "to": "0x86552b0e39cf2b4861cd0d34254f0fd98d23e852",
        "gas": "0x2ae85",
        "value": "0x0",
        "input": "0xbe1eaad9000000000000000000000000000000000000000000000000000000000000004000000000000000000000000000000000000000000000000000000000002dc6c000000000000000000000000000000000000000000000000000000000000000136167656e745f646174615f616e616c7973697300000000000000000000000000",
        "nonce": "0x8",
        "chainId": "0x4cef52"
      },
      "additionalContracts": [],
      "isFixedGasLimit": false
    },
    {
      "hash": "0x20db8185fed9c02450b604d9b8d9ccec078e1f151607ac44fa97eb36106f611a",
      "transactionType": "CALL",
      "contractName": null,
      "contractAddress": "0x86552b0e39cf2b4861cd0d34254f0fd98d23e852",
      "function": "listAgent(string,uint256)",
      "arguments": [
        "agent_content_writing",
        "4500000"
      ],
      "transaction": {
        "from": "0xde45ec28834c609307bef5651688a6c41d5e6994",
        "to": "0x86552b0e39cf2b4861cd0d34254f0fd98d23e852",
        "gas": "0x2aea8",
        "value": "0x0",
        "input": "0xbe1eaad90000000000000000000000000000000000000000000000000000000000000040000000000000000000000000000000000000000000000000000000000044aa2000000000000000000000000000000000000000000000000000000000000000156167656e745f636f6e74656e745f77726974696e670000000000000000000000",
        "nonce": "0x9",
        "chainId": "0x4cef52"
      },
      "additionalContracts": [],
      "isFixedGasLimit": false
    },
    {
      "hash": "0xb56f0d1d25af7256ac32b053d578190ae613e10852db5df6d0dbde1aa47159db",
      "transactionType": "CALL",
      "contractName": null,
      "contractAddress": "0x86552b0e39cf2b4861cd0d34254f0fd98d23e852",
      "function": "listAgent(string,uint256)",
      "arguments": [
        "agent_python_coding",
        "6000000"
      ],
      "transaction": {
        "from": "0xde45ec28834c609307bef5651688a6c41d5e6994",
        "to": "0x86552b0e39cf2b4861cd0d34254f0fd98d23e852",
        "gas": "0x2ae85",
        "value": "0x0",
        "input": "0xbe1eaad9000000000000000000000000000000000000000000000000000000000000004000000000000000000000000000000000000000000000000000000000005b8d8000000000000000000000000000000000000000000000000000000000000000136167656e745f707974686f6e5f636f64696e6700000000000000000000000000",
        "nonce": "0xa",
        "chainId": "0x4cef52"
      },
      "additionalContracts": [],
      "isFixedGasLimit": false
    },
    {
      "hash": "0xa1e035b1e74842774613b7130d3693005dcb23540f23db7b25254a5c7802912e",
      "transactionType": "CALL",
      "contractName": null,
      "contractAddress": "0x86552b0e39cf2b4861cd0d34254f0fd98d23e852",
      "function": "listAgent(string,uint256)",
      "arguments": [
        "agent_lang_translation",
        "2000000"
      ],
      "transaction": {
        "from": "0xde45ec28834c609307bef5651688a6c41d5e6994",
        "to": "0x86552b0e39cf2b4861cd0d34254f0fd98d23e852",
        "gas": "0x28892",
        "value": "0x0",
        "input": "0xbe1eaad9000000000000000000000000000000000000000000000000000000000000004000000000000000000000000000000000000000000000000000000000001e848000000000000000000000000000000000000000000000000000000000000000166167656e745f6c616e675f7472616e736c6174696f6e00000000000000000000",
        "nonce": "0xb",
        "chainId": "0x4cef52"
      },
      "additionalContracts": [],
      "isFixedGasLimit": false
    },
    {
      "hash": "0x1e41a2cbad09c0bed69a03f29b21d59f0148962277b16dc73fcf6fba96a22956",
      "transactionType": "CALL",
      "contractName": null,
      "contractAddress": "0x86552b0e39cf2b4861cd0d34254f0fd98d23e852",
      "function": "listAgent(string,uint256)",
      "arguments": [
        "agent_image_gen",
        "5000000"
      ],
      "transaction": {
        "from": "0xde45ec28834c609307bef5651688a6c41d5e6994",
        "to": "0x86552b0e39cf2b4861cd0d34254f0fd98d23e852",
        "gas": "0x2ae3f",
        "value": "0x0",
        "input": "0xbe1eaad9000000000000000000000000000000000000000000000000000000000000004000000000000000000000000000000000000000000000000000000000004c4b40000000000000000000000000000000000000000000000000000000000000000f6167656e745f696d6167655f67656e0000000000000000000000000000000000",
        "nonce": "0xc",
        "chainId": "0x4cef52"
      },
      "additionalContracts": [],
      "isFixedGasLimit": false
    },
    {
      "hash": "0x9d01b40ccec97d87834b3caa4896aefcbb455f7827a5867ecb7d4d49f390c697",
      "transactionType": "CALL",
      "contractName": null,
      "contractAddress": "0x86552b0e39cf2b4861cd0d34254f0fd98d23e852",
      "function": "listAgent(string,uint256)",
      "arguments": [
        "agent_ai_moderation",
        "2500000"
      ],
      "transaction": {
        "from": "0xde45ec28834c609307bef5651688a6c41d5e6994",
        "to": "0x86552b0e39cf2b4861cd0d34254f0fd98d23e852",
        "gas": "0x2ae85",
        "value": "0x0",
        "input": "0xbe1eaad9000000000000000000000000000000000000000000000000000000000000004000000000000000000000000000000000000000000000000000000000002625a000000000000000000000000000000000000000000000000000000000000000136167656e745f61695f6d6f6465726174696f6e00000000000000000000000000",
        "nonce": "0xd",
        "chainId": "0x4cef52"
      },
      "additionalContracts": [],
      "isFixedGasLimit": false
    }
  ],
  "receipts": [
    {
      "type": "0x0",
      "status": "0x1",
      "cumulativeGasUsed": "0x323972",
      "logs": [
        {
          "address": "0x86552b0e39cf2b4861cd0d34254f0fd98d23e852",
          "topics": [
            "0x70c096a8ffc9f738a8a09dbfac955378c41a1b4206b3e07e28343f3d0701a9b6",
            "0x7e70c710e7b22a99165bc45b04ef4381eafa92a77838ed5652bf2769c8c8b17a",
            "0x000000000000000000000000de45ec28834c609307bef5651688a6c41d5e6994"
          ],
          "data": "0x00000000000000000000000000000000000000000000000000000000002dc6c0",
          "blockHash": "0x8972251dff81e486211f587e5c0c739dce781d780884f92fa5de6ef2fe06c90e",
          "blockNumber": "0x2cf6e63",
          "blockTimestamp": "0x6a2f9d3b",
          "transactionHash": "0x20db8185fed9c02450b604d9b8d9ccec078e1f151607ac44fa97eb36106f611a",
          "transactionIndex": "0x11",
          "logIndex": "0x2b",
          "removed": false
        }
      ],
      "logsBloom": "0x00000000000000000000000000000000000000000000000000000000000000000000000000000000000000000000000000000000000000000000000800100000000000000000000000000000100000000000000000000000000000000000000000040080000000000002000000000000000000000000000008000000000000000000000000000000000000000000000000000000000000000000000000000000000000000000010000000000000000000000000000000000000000080000000000000000080008000000000000000000000000000000000000000000000000000000000004000000000000000000000000000000000000000000000000000000",
      "transactionHash": "0x20db8185fed9c02450b604d9b8d9ccec078e1f151607ac44fa97eb36106f611a",
      "transactionIndex": "0x11",
      "blockHash": "0x8972251dff81e486211f587e5c0c739dce781d780884f92fa5de6ef2fe06c90e",
      "blockNumber": "0x2cf6e63",
      "gasUsed": "0x1d56b",
      "effectiveGasPrice": "0x4b4038a00",
      "from": "0xde45ec28834c609307bef5651688a6c41d5e6994",
      "to": "0x86552b0e39cf2b4861cd0d34254f0fd98d23e852",
      "contractAddress": null
    },
    {
      "type": "0x0",
      "status": "0x1",
      "cumulativeGasUsed": "0x340ef5",
      "logs": [
        {
          "address": "0x86552b0e39cf2b4861cd0d34254f0fd98d23e852",
          "topics": [
            "0x70c096a8ffc9f738a8a09dbfac955378c41a1b4206b3e07e28343f3d0701a9b6",
            "0xf57c2e3e4e7de08ba1de2108dfa388b9241480ca9e9fe21cc5528a77329c9781",
            "0x000000000000000000000000de45ec28834c609307bef5651688a6c41d5e6994"
          ],
          "data": "0x000000000000000000000000000000000000000000000000000000000044aa20",
          "blockHash": "0x8972251dff81e486211f587e5c0c739dce781d780884f92fa5de6ef2fe06c90e",
          "blockNumber": "0x2cf6e63",
          "blockTimestamp": "0x6a2f9d3b",
          "transactionHash": "0xa1e035b1e74842774613b7130d3693005dcb23540f23db7b25254a5c7802912e",
          "transactionIndex": "0x12",
          "logIndex": "0x2c",
          "removed": false
        }
      ],
      "logsBloom": "0x00000000000000000000000000000000000000000000000000000000000000000000000200000000000000000000000000000100000000000000000000100000000000000000000000000000000000000000000000000000000000000000000000040080000000000002000000000004000000000000000000000000000000000000000000000000000000000000000000000000000000000000000000000000000000000000010000000000000000000000000000000000000000080000000000000000080008000000000000000000000000000000000000000000000000000000000004000000000000000000000000000000000000000000000000000000",
      "transactionHash": "0xa1e035b1e74842774613b7130d3693005dcb23540f23db7b25254a5c7802912e",
      "transactionIndex": "0x12",
      "blockHash": "0x8972251dff81e486211f587e5c0c739dce781d780884f92fa5de6ef2fe06c90e",
      "blockNumber": "0x2cf6e63",
      "gasUsed": "0x1d583",
      "effectiveGasPrice": "0x4b4038a00",
      "from": "0xde45ec28834c609307bef5651688a6c41d5e6994",
      "to": "0x86552b0e39cf2b4861cd0d34254f0fd98d23e852",
      "contractAddress": null
    },
    {
      "type": "0x0",
      "status": "0x1",
      "cumulativeGasUsed": "0x35e460",
      "logs": [
        {
          "address": "0x86552b0e39cf2b4861cd0d34254f0fd98d23e852",
          "topics": [
            "0x70c096a8ffc9f738a8a09dbfac955378c41a1b4206b3e07e28343f3d0701a9b6",
            "0x82a924669f0448570e2cacb8a72fd5ba1045d8cc696c594297b2066d393dc147",
            "0x000000000000000000000000de45ec28834c609307bef5651688a6c41d5e6994"
          ],
          "data": "0x00000000000000000000000000000000000000000000000000000000005b8d80",
          "blockHash": "0x8972251dff81e486211f587e5c0c739dce781d780884f92fa5de6ef2fe06c90e",
          "blockNumber": "0x2cf6e63",
          "blockTimestamp": "0x6a2f9d3b",
          "transactionHash": "0x7500f33968f78631ca94ebc9cb1373035daa4547b72bc6cfde21d1959c40b776",
          "transactionIndex": "0x13",
          "logIndex": "0x2d",
          "removed": false
        }
      ],
      "logsBloom": "0x00000000000000000000000000000000000000000000000000000000000000000000000000000000000000000000000000000000000000000000000000100000000000000000000000001000000000000000000000000000000000000000000000040080000000000002000000000000000000000000000000040000000000000000000000000000000000000000000000000000000000000000000000000000000000000000010000080000000000000000000000000000000000080000000000000000080008000000000000000000000000000000000000000000000000000000000004000000000000000000000000000000000000000000000000000000",
      "transactionHash": "0x7500f33968f78631ca94ebc9cb1373035daa4547b72bc6cfde21d1959c40b776",
      "transactionIndex": "0x13",
      "blockHash": "0x8972251dff81e486211f587e5c0c739dce781d780884f92fa5de6ef2fe06c90e",
      "blockNumber": "0x2cf6e63",
      "gasUsed": "0x1d56b",
      "effectiveGasPrice": "0x4b4038a00",
      "from": "0xde45ec28834c609307bef5651688a6c41d5e6994",
      "to": "0x86552b0e39cf2b4861cd0d34254f0fd98d23e852",
      "contractAddress": null
    },
    {
      "type": "0x0",
      "status": "0x1",
      "cumulativeGasUsed": "0x37b9ef",
      "logs": [
        {
          "address": "0x86552b0e39cf2b4861cd0d34254f0fd98d23e852",
          "topics": [
            "0x70c096a8ffc9f738a8a09dbfac955378c41a1b4206b3e07e28343f3d0701a9b6",
            "0xb2beeccb475e1e2327b399c6bc65bdd23b5d70696f4bb1150a8639662a932db4",
            "0x000000000000000000000000de45ec28834c609307bef5651688a6c41d5e6994"
          ],
          "data": "0x00000000000000000000000000000000000000000000000000000000001e8480",
          "blockHash": "0x8972251dff81e486211f587e5c0c739dce781d780884f92fa5de6ef2fe06c90e",
          "blockNumber": "0x2cf6e63",
          "blockTimestamp": "0x6a2f9d3b",
          "transactionHash": "0xb56f0d1d25af7256ac32b053d578190ae613e10852db5df6d0dbde1aa47159db",
          "transactionIndex": "0x14",
          "logIndex": "0x2e",
          "removed": false
        }
      ],
      "logsBloom": "0x00000000000000000000000000000000000000000000000000000000000000000000000000000000000000000000000000000000000000000000000000100000000000000000000000000000000000000000000000000000040000000000000000040080000000000002000000000000000000000000000000000000000000020000000000000000000000000000000000000000000000000000000000000000000000000000010000000000000000000000000000000000000000080000000000000000080008000000000000000000000000000000000000000000000000000000000004000000000000000000000000000000000000000000000000000800",
      "transactionHash": "0xb56f0d1d25af7256ac32b053d578190ae613e10852db5df6d0dbde1aa47159db",
      "transactionIndex": "0x14",
      "blockHash": "0x8972251dff81e486211f587e5c0c739dce781d780884f92fa5de6ef2fe06c90e",
      "blockNumber": "0x2cf6e63",
      "gasUsed": "0x1d58f",
      "effectiveGasPrice": "0x4b4038a00",
      "from": "0xde45ec28834c609307bef5651688a6c41d5e6994",
      "to": "0x86552b0e39cf2b4861cd0d34254f0fd98d23e852",
      "contractAddress": null
    },
    {
      "type": "0x0",
      "status": "0x1",
      "cumulativeGasUsed": "0x398f2a",
      "logs": [
        {
          "address": "0x86552b0e39cf2b4861cd0d34254f0fd98d23e852",
          "topics": [
            "0x70c096a8ffc9f738a8a09dbfac955378c41a1b4206b3e07e28343f3d0701a9b6",
            "0x682ae93c4a45a544090112a627eebd7ca54679f7a20c000dd86797d4607e6538",
            "0x000000000000000000000000de45ec28834c609307bef5651688a6c41d5e6994"
          ],
          "data": "0x00000000000000000000000000000000000000000000000000000000004c4b40",
          "blockHash": "0x8972251dff81e486211f587e5c0c739dce781d780884f92fa5de6ef2fe06c90e",
          "blockNumber": "0x2cf6e63",
          "blockTimestamp": "0x6a2f9d3b",
          "transactionHash": "0x9d01b40ccec97d87834b3caa4896aefcbb455f7827a5867ecb7d4d49f390c697",
          "transactionIndex": "0x15",
          "logIndex": "0x2f",
          "removed": false
        }
      ],
      "logsBloom": "0x00000000000000000000000000000000000000000000000000000000000200000000000000000000000000000000000000000000000000000000000000100000000000000000000000000000000000000000000000000000000000000000000000040080000000000002000000000000000000000000000000000000000000000000000000000000000010000000000000000000000000000000000000000000000000000000010000000000000000000000000000000000000000080000000000000000080008000000000000000000000000000000000000000000000000000000000004000000000000000000000000000000000040000000000000000000",
      "transactionHash": "0x9d01b40ccec97d87834b3caa4896aefcbb455f7827a5867ecb7d4d49f390c697",
      "transactionIndex": "0x15",
      "blockHash": "0x8972251dff81e486211f587e5c0c739dce781d780884f92fa5de6ef2fe06c90e",
      "blockNumber": "0x2cf6e63",
      "gasUsed": "0x1d53b",
      "effectiveGasPrice": "0x4b4038a00",
      "from": "0xde45ec28834c609307bef5651688a6c41d5e6994",
      "to": "0x86552b0e39cf2b4861cd0d34254f0fd98d23e852",
      "contractAddress": null
    },
    {
      "type": "0x0",
      "status": "0x1",
      "cumulativeGasUsed": "0x3b6495",
      "logs": [
        {
          "address": "0x86552b0e39cf2b4861cd0d34254f0fd98d23e852",
          "topics": [
            "0x70c096a8ffc9f738a8a09dbfac955378c41a1b4206b3e07e28343f3d0701a9b6",
            "0x8185a103baffd721e3b33473e16829acc8f8e4ef8eb9dfb852412d5e29bbdbee",
            "0x000000000000000000000000de45ec28834c609307bef5651688a6c41d5e6994"
          ],
          "data": "0x00000000000000000000000000000000000000000000000000000000002625a0",
          "blockHash": "0x8972251dff81e486211f587e5c0c739dce781d780884f92fa5de6ef2fe06c90e",
          "blockNumber": "0x2cf6e63",
          "blockTimestamp": "0x6a2f9d3b",
          "transactionHash": "0x1e41a2cbad09c0bed69a03f29b21d59f0148962277b16dc73fcf6fba96a22956",
          "transactionIndex": "0x16",
          "logIndex": "0x30",
          "removed": false
        }
      ],
      "logsBloom": "0x00000000000000000000000000000000000000000000000000000000000000000000000000000000000000000000000000000000000000000000000000100000000000000000000000000000000000000000000000000000000000000000000000040080000000000002000000000000000000000000000000000000000000000000000000000000000000000000000000000000000000000000000000000000000000000000010000000000000000000000000000000000000000080000000000000000080008000000000000000000000000000000000000000000000000000100000004000000000000000000000000000000000001000010000000000000",
      "transactionHash": "0x1e41a2cbad09c0bed69a03f29b21d59f0148962277b16dc73fcf6fba96a22956",
      "transactionIndex": "0x16",
      "blockHash": "0x8972251dff81e486211f587e5c0c739dce781d780884f92fa5de6ef2fe06c90e",
      "blockNumber": "0x2cf6e63",
      "gasUsed": "0x1d56b",
      "effectiveGasPrice": "0x4b4038a00",
      "from": "0xde45ec28834c609307bef5651688a6c41d5e6994",
      "to": "0x86552b0e39cf2b4861cd0d34254f0fd98d23e852",
      "contractAddress": null
    }
  ],
  "libraries": [],
  "pending": [],
  "returns": {},
  "timestamp": 1781505331554,
  "chain": 5042002,
  "commit": null
}